{
  "_format": "hh-sol-artifact-1",
  "contractName": "StarbucksSPOTx",
  "sourceName": "contracts/Greeter.sol",
  "abi": [
    {
      "inputs": [],
      "stateMutability": "nonpayable",
      "type": "constructor"
    },
    {
      "anonymous": false,
      "inputs": [
        {
          "indexed": true,
          "internalType": "address",
          "name": "account",
          "type": "address"
        },
        {
          "indexed": true,
          "internalType": "address",
          "name": "operator",
          "type": "address"
        },
        {
          "indexed": false,
          "internalType": "bool",
          "name": "approved",
          "type": "bool"
        }
      ],
      "name": "ApprovalForAll",
      "type": "event"
    },
    {
      "anonymous": false,
      "inputs": [
        {
          "indexed": true,
          "internalType": "bytes32",
          "name": "role",
          "type": "bytes32"
        },
        {
          "indexed": true,
          "internalType": "bytes32",
          "name": "previousAdminRole",
          "type": "bytes32"
        },
        {
          "indexed": true,
          "internalType": "bytes32",
          "name": "newAdminRole",
          "type": "bytes32"
        }
      ],
      "name": "RoleAdminChanged",
      "type": "event"
    },
    {
      "anonymous": false,
      "inputs": [
        {
          "indexed": true,
          "internalType": "bytes32",
          "name": "role",
          "type": "bytes32"
        },
        {
          "indexed": true,
          "internalType": "address",
          "name": "account",
          "type": "address"
        },
        {
          "indexed": true,
          "internalType": "address",
          "name": "sender",
          "type": "address"
        }
      ],
      "name": "RoleGranted",
      "type": "event"
    },
    {
      "anonymous": false,
      "inputs": [
        {
          "indexed": true,
          "internalType": "bytes32",
          "name": "role",
          "type": "bytes32"
        },
        {
          "indexed": true,
          "internalType": "address",
          "name": "account",
          "type": "address"
        },
        {
          "indexed": true,
          "internalType": "address",
          "name": "sender",
          "type": "address"
        }
      ],
      "name": "RoleRevoked",
      "type": "event"
    },
    {
      "anonymous": false,
      "inputs": [
        {
          "indexed": true,
          "internalType": "address",
          "name": "operator",
          "type": "address"
        },
        {
          "indexed": true,
          "internalType": "address",
          "name": "from",
          "type": "address"
        },
        {
          "indexed": true,
          "internalType": "address",
          "name": "to",
          "type": "address"
        },
        {
          "indexed": false,
          "internalType": "uint256[]",
          "name": "ids",
          "type": "uint256[]"
        },
        {
          "indexed": false,
          "internalType": "uint256[]",
          "name": "values",
          "type": "uint256[]"
        }
      ],
      "name": "TransferBatch",
      "type": "event"
    },
    {
      "anonymous": false,
      "inputs": [
        {
          "indexed": true,
          "internalType": "address",
          "name": "operator",
          "type": "address"
        },
        {
          "indexed": true,
          "internalType": "address",
          "name": "from",
          "type": "address"
        },
        {
          "indexed": true,
          "internalType": "address",
          "name": "to",
          "type": "address"
        },
        {
          "indexed": false,
          "internalType": "uint256",
          "name": "id",
          "type": "uint256"
        },
        {
          "indexed": false,
          "internalType": "uint256",
          "name": "value",
          "type": "uint256"
        }
      ],
      "name": "TransferSingle",
      "type": "event"
    },
    {
      "anonymous": false,
      "inputs": [
        {
          "indexed": false,
          "internalType": "string",
          "name": "value",
          "type": "string"
        },
        {
          "indexed": true,
          "internalType": "uint256",
          "name": "id",
          "type": "uint256"
        }
      ],
      "name": "URI",
      "type": "event"
    },
    {
      "inputs": [],
      "name": "DEFAULT_ADMIN_ROLE",
      "outputs": [
        {
          "internalType": "bytes32",
          "name": "",
          "type": "bytes32"
        }
      ],
      "stateMutability": "view",
      "type": "function"
    },
    {
      "inputs": [],
      "name": "MINTER_ROLE",
      "outputs": [
        {
          "internalType": "bytes32",
          "name": "",
          "type": "bytes32"
        }
      ],
      "stateMutability": "view",
      "type": "function"
    },
    {
      "inputs": [],
      "name": "URI_SETTER_ROLE",
      "outputs": [
        {
          "internalType": "bytes32",
          "name": "",
          "type": "bytes32"
        }
      ],
      "stateMutability": "view",
      "type": "function"
    },
    {
      "inputs": [
        {
          "internalType": "address",
          "name": "account",
          "type": "address"
        },
        {
          "internalType": "uint256",
          "name": "id",
          "type": "uint256"
        }
      ],
      "name": "balanceOf",
      "outputs": [
        {
          "internalType": "uint256",
          "name": "",
          "type": "uint256"
        }
      ],
      "stateMutability": "view",
      "type": "function"
    },
    {
      "inputs": [
        {
          "internalType": "address[]",
          "name": "accounts",
          "type": "address[]"
        },
        {
          "internalType": "uint256[]",
          "name": "ids",
          "type": "uint256[]"
        }
      ],
      "name": "balanceOfBatch",
      "outputs": [
        {
          "internalType": "uint256[]",
          "name": "",
          "type": "uint256[]"
        }
      ],
      "stateMutability": "view",
      "type": "function"
    },
    {
      "inputs": [
        {
          "internalType": "bytes32",
          "name": "role",
          "type": "bytes32"
        }
      ],
      "name": "getRoleAdmin",
      "outputs": [
        {
          "internalType": "bytes32",
          "name": "",
          "type": "bytes32"
        }
      ],
      "stateMutability": "view",
      "type": "function"
    },
    {
      "inputs": [
        {
          "internalType": "bytes32",
          "name": "role",
          "type": "bytes32"
        },
        {
          "internalType": "address",
          "name": "account",
          "type": "address"
        }
      ],
      "name": "grantRole",
      "outputs": [],
      "stateMutability": "nonpayable",
      "type": "function"
    },
    {
      "inputs": [
        {
          "internalType": "bytes32",
          "name": "role",
          "type": "bytes32"
        },
        {
          "internalType": "address",
          "name": "account",
          "type": "address"
        }
      ],
      "name": "hasRole",
      "outputs": [
        {
          "internalType": "bool",
          "name": "",
          "type": "bool"
        }
      ],
      "stateMutability": "view",
      "type": "function"
    },
    {
      "inputs": [
        {
          "internalType": "address",
          "name": "account",
          "type": "address"
        },
        {
          "internalType": "address",
          "name": "operator",
          "type": "address"
        }
      ],
      "name": "isApprovedForAll",
      "outputs": [
        {
          "internalType": "bool",
          "name": "",
          "type": "bool"
        }
      ],
      "stateMutability": "view",
      "type": "function"
    },
    {
      "inputs": [
        {
          "internalType": "address",
          "name": "account",
          "type": "address"
        },
        {
          "internalType": "uint256",
          "name": "amount",
          "type": "uint256"
        }
      ],
      "name": "mint",
      "outputs": [],
      "stateMutability": "nonpayable",
      "type": "function"
    },
    {
      "inputs": [
        {
          "internalType": "address",
          "name": "to",
          "type": "address"
        },
        {
          "internalType": "uint256[]",
          "name": "ids",
          "type": "uint256[]"
        },
        {
          "internalType": "uint256[]",
          "name": "amounts",
          "type": "uint256[]"
        },
        {
          "internalType": "bytes",
          "name": "data",
          "type": "bytes"
        }
      ],
      "name": "mintBatch",
      "outputs": [],
      "stateMutability": "nonpayable",
      "type": "function"
    },
    {
      "inputs": [
        {
          "internalType": "bytes32",
          "name": "role",
          "type": "bytes32"
        },
        {
          "internalType": "address",
          "name": "account",
          "type": "address"
        }
      ],
      "name": "renounceRole",
      "outputs": [],
      "stateMutability": "nonpayable",
      "type": "function"
    },
    {
      "inputs": [
        {
          "internalType": "bytes32",
          "name": "role",
          "type": "bytes32"
        },
        {
          "internalType": "address",
          "name": "account",
          "type": "address"
        }
      ],
      "name": "revokeRole",
      "outputs": [],
      "stateMutability": "nonpayable",
      "type": "function"
    },
    {
      "inputs": [
        {
          "internalType": "address",
          "name": "from",
          "type": "address"
        },
        {
          "internalType": "address",
          "name": "to",
          "type": "address"
        },
        {
          "internalType": "uint256[]",
          "name": "ids",
          "type": "uint256[]"
        },
        {
          "internalType": "uint256[]",
          "name": "amounts",
          "type": "uint256[]"
        },
        {
          "internalType": "bytes",
          "name": "data",
          "type": "bytes"
        }
      ],
      "name": "safeBatchTransferFrom",
      "outputs": [],
      "stateMutability": "nonpayable",
      "type": "function"
    },
    {
      "inputs": [
        {
          "internalType": "address",
          "name": "from",
          "type": "address"
        },
        {
          "internalType": "address",
          "name": "to",
          "type": "address"
        },
        {
          "internalType": "uint256",
          "name": "id",
          "type": "uint256"
        },
        {
          "internalType": "uint256",
          "name": "amount",
          "type": "uint256"
        },
        {
          "internalType": "bytes",
          "name": "data",
          "type": "bytes"
        }
      ],
      "name": "safeTransferFrom",
      "outputs": [],
      "stateMutability": "nonpayable",
      "type": "function"
    },
    {
      "inputs": [
        {
          "internalType": "address",
          "name": "operator",
          "type": "address"
        },
        {
          "internalType": "bool",
          "name": "approved",
          "type": "bool"
        }
      ],
      "name": "setApprovalForAll",
      "outputs": [],
      "stateMutability": "nonpayable",
      "type": "function"
    },
    {
      "inputs": [
        {
          "internalType": "string",
          "name": "newuri",
          "type": "string"
        }
      ],
      "name": "setURI",
      "outputs": [],
      "stateMutability": "nonpayable",
      "type": "function"
    },
    {
      "inputs": [
        {
          "internalType": "bytes4",
          "name": "interfaceId",
          "type": "bytes4"
        }
      ],
      "name": "supportsInterface",
      "outputs": [
        {
          "internalType": "bool",
          "name": "",
          "type": "bool"
        }
      ],
      "stateMutability": "view",
      "type": "function"
    },
    {
      "inputs": [
        {
          "internalType": "uint256",
          "name": "",
          "type": "uint256"
        }
      ],
      "name": "uri",
      "outputs": [
        {
          "internalType": "string",
          "name": "",
          "type": "string"
        }
      ],
      "stateMutability": "view",
      "type": "function"
    }
  ],
  "bytecode": "0x60806040523480156200001157600080fd5b506040518060400160405280600e81526020017f737461726275636b732e6a736f6e0000000000000000000000000000000000008152506200005981620000d960201b60201c565b506200006f6000801b33620000f560201b60201c565b620000a17f7804d923f43a17d325d77e781528e0793b2edd9890ab45fc64efd7b4b427744c33620000f560201b60201c565b620000d37f9f2df0fed2c77648de5860a4cc508cd0818c85b8b8a1ab4ceeef8d981c8956a633620000f560201b60201c565b6200036f565b8060029080519060200190620000f19291906200025a565b5050565b620001078282620001e760201b60201c565b620001e35760016003600084815260200190815260200160002060000160008373ffffffffffffffffffffffffffffffffffffffff1673ffffffffffffffffffffffffffffffffffffffff16815260200190815260200160002060006101000a81548160ff021916908315150217905550620001886200025260201b60201c565b73ffffffffffffffffffffffffffffffffffffffff168173ffffffffffffffffffffffffffffffffffffffff16837f2f8788117e7eff1d82e926ec794901d17c78024a50270940304540a733656f0d60405160405180910390a45b5050565b60006003600084815260200190815260200160002060000160008373ffffffffffffffffffffffffffffffffffffffff1673ffffffffffffffffffffffffffffffffffffffff16815260200190815260200160002060009054906101000a900460ff16905092915050565b600033905090565b82805462000268906200030a565b90600052602060002090601f0160209004810192826200028c5760008555620002d8565b82601f10620002a757805160ff1916838001178555620002d8565b82800160010185558215620002d8579182015b82811115620002d7578251825591602001919060010190620002ba565b5b509050620002e79190620002eb565b5090565b5b8082111562000306576000816000905550600101620002ec565b5090565b600060028204905060018216806200032357607f821691505b602082108114156200033a576200033962000340565b5b50919050565b7f4e487b7100000000000000000000000000000000000000000000000000000000600052602260045260246000fd5b613ad2806200037f6000396000f3fe608060405234801561001057600080fd5b50600436106101205760003560e01c806340c10f19116100ad578063a22cb46511610071578063a22cb46514610329578063d539139314610345578063d547741f14610363578063e985e9c51461037f578063f242432a146103af57610120565b806340c10f19146102715780634e1273f41461028d5780637f345710146102bd57806391d14854146102db578063a217fddf1461030b57610120565b80631f7fdffa116100f45780631f7fdffa146101d1578063248a9ca3146101ed5780632eb2c2d61461021d5780632f2ff15d1461023957806336568abe1461025557610120565b8062fdd58e1461012557806301ffc9a71461015557806302fe5305146101855780630e89341c146101a1575b600080fd5b61013f600480360381019061013a919061282b565b6103cb565b60405161014c91906130b2565b60405180910390f35b61016f600480360381019061016a9190612938565b610494565b60405161017c9190612eba565b60405180910390f35b61019f600480360381019061019a919061298a565b6104a6565b005b6101bb60048036038101906101b691906129cb565b6104e5565b6040516101c89190612ef0565b60405180910390f35b6101eb60048036038101906101e69190612744565b610579565b005b610207600480360381019061020291906128d3565b6105be565b6040516102149190612ed5565b60405180910390f35b610237600480360381019061023291906125f6565b6105de565b005b610253600480360381019061024e91906128fc565b61067f565b005b61026f600480360381019061026a91906128fc565b6106a8565b005b61028b6004803603810190610286919061282b565b61072b565b005b6102a760048036038101906102a29190612867565b61077e565b6040516102b49190612e61565b60405180910390f35b6102c561092f565b6040516102d29190612ed5565b60405180910390f35b6102f560048036038101906102f091906128fc565b610953565b6040516103029190612eba565b60405180910390f35b6103136109be565b6040516103209190612ed5565b60405180910390f35b610343600480360381019061033e91906127ef565b6109c5565b005b61034d6109db565b60405161035a9190612ed5565b60405180910390f35b61037d600480360381019061037891906128fc565b6109ff565b005b610399600480360381019061039491906125ba565b610a28565b6040516103a69190612eba565b60405180910390f35b6103c960048036038101906103c491906126b5565b610abc565b005b60008073ffffffffffffffffffffffffffffffffffffffff168373ffffffffffffffffffffffffffffffffffffffff16141561043c576040517f08c379a000000000000000000000000000000000000000000000000000000000815260040161043390612f72565b60405180910390fd5b60008083815260200190815260200160002060008473ffffffffffffffffffffffffffffffffffffffff1673ffffffffffffffffffffffffffffffffffffffff16815260200190815260200160002054905092915050565b600061049f82610b5d565b9050919050565b7f7804d923f43a17d325d77e781528e0793b2edd9890ab45fc64efd7b4b427744c6104d8816104d3610bd7565b610bdf565b6104e182610c7c565b5050565b6060600280546104f4906133eb565b80601f0160208091040260200160405190810160405280929190818152602001828054610520906133eb565b801561056d5780601f106105425761010080835404028352916020019161056d565b820191906000526020600020905b81548152906001019060200180831161055057829003601f168201915b50505050509050919050565b7f9f2df0fed2c77648de5860a4cc508cd0818c85b8b8a1ab4ceeef8d981c8956a66105ab816105a6610bd7565b610bdf565b6105b785858585610c96565b5050505050565b600060036000838152602001908152602001600020600101549050919050565b6105e6610bd7565b73ffffffffffffffffffffffffffffffffffffffff168573ffffffffffffffffffffffffffffffffffffffff16148061062c575061062b85610626610bd7565b610a28565b5b61066b576040517f08c379a000000000000000000000000000000000000000000000000000000000815260040161066290612fd2565b60405180910390fd5b6106788585858585610f00565b5050505050565b610688826105be565b61069981610694610bd7565b610bdf565b6106a38383611260565b505050565b6106b0610bd7565b73ffffffffffffffffffffffffffffffffffffffff168173ffffffffffffffffffffffffffffffffffffffff161461071d576040517f08c379a000000000000000000000000000000000000000000000000000000000815260040161071490613092565b60405180910390fd5b6107278282611341565b5050565b7f9f2df0fed2c77648de5860a4cc508cd0818c85b8b8a1ab4ceeef8d981c8956a661075d81610758610bd7565b610bdf565b6107798360008460405180602001604052806000815250611423565b505050565b606081518351146107c4576040517f08c379a00000000000000000000000000000000000000000000000000000000081526004016107bb90613032565b60405180910390fd5b6000835167ffffffffffffffff811115610807577f4e487b7100000000000000000000000000000000000000000000000000000000600052604160045260246000fd5b6040519080825280602002602001820160405280156108355781602001602082028036833780820191505090505b50905060005b8451811015610924576108ce858281518110610880577f4e487b7100000000000000000000000000000000000000000000000000000000600052603260045260246000fd5b60200260200101518583815181106108c1577f4e487b7100000000000000000000000000000000000000000000000000000000600052603260045260246000fd5b60200260200101516103cb565b828281518110610907577f4e487b7100000000000000000000000000000000000000000000000000000000600052603260045260246000fd5b6020026020010181815250508061091d9061344e565b905061083b565b508091505092915050565b7f7804d923f43a17d325d77e781528e0793b2edd9890ab45fc64efd7b4b427744c81565b60006003600084815260200190815260200160002060000160008373ffffffffffffffffffffffffffffffffffffffff1673ffffffffffffffffffffffffffffffffffffffff16815260200190815260200160002060009054906101000a900460ff16905092915050565b6000801b81565b6109d76109d0610bd7565b83836115b9565b5050565b7f9f2df0fed2c77648de5860a4cc508cd0818c85b8b8a1ab4ceeef8d981c8956a681565b610a08826105be565b610a1981610a14610bd7565b610bdf565b610a238383611341565b505050565b6000600160008473ffffffffffffffffffffffffffffffffffffffff1673ffffffffffffffffffffffffffffffffffffffff16815260200190815260200160002060008373ffffffffffffffffffffffffffffffffffffffff1673ffffffffffffffffffffffffffffffffffffffff16815260200190815260200160002060009054906101000a900460ff16905092915050565b610ac4610bd7565b73ffffffffffffffffffffffffffffffffffffffff168573ffffffffffffffffffffffffffffffffffffffff161480610b0a5750610b0985610b04610bd7565b610a28565b5b610b49576040517f08c379a0000000000000000000000000000000000000000000000000000000008152600401610b4090612f92565b60405180910390fd5b610b568585858585611726565b5050505050565b60007f7965db0b000000000000000000000000000000000000000000000000000000007bffffffffffffffffffffffffffffffffffffffffffffffffffffffff1916827bffffffffffffffffffffffffffffffffffffffffffffffffffffffff19161480610bd05750610bcf826119a8565b5b9050919050565b600033905090565b610be98282610953565b610c7857610c0e8173ffffffffffffffffffffffffffffffffffffffff166014611a8a565b610c1c8360001c6020611a8a565b604051602001610c2d929190612d65565b6040516020818303038152906040526040517f08c379a0000000000000000000000000000000000000000000000000000000008152600401610c6f9190612ef0565b60405180910390fd5b5050565b8060029080519060200190610c9292919061229d565b5050565b600073ffffffffffffffffffffffffffffffffffffffff168473ffffffffffffffffffffffffffffffffffffffff161415610d06576040517f08c379a0000000000000000000000000000000000000000000000000000000008152600401610cfd90613072565b60405180910390fd5b8151835114610d4a576040517f08c379a0000000000000000000000000000000000000000000000000000000008152600401610d4190613052565b60405180910390fd5b6000610d54610bd7565b9050610d6581600087878787611d84565b60005b8451811015610e6a57838181518110610daa577f4e487b7100000000000000000000000000000000000000000000000000000000600052603260045260246000fd5b6020026020010151600080878481518110610dee577f4e487b7100000000000000000000000000000000000000000000000000000000600052603260045260246000fd5b6020026020010151815260200190815260200160002060008873ffffffffffffffffffffffffffffffffffffffff1673ffffffffffffffffffffffffffffffffffffffff1681526020019081526020016000206000828254610e509190613251565b925050819055508080610e629061344e565b915050610d68565b508473ffffffffffffffffffffffffffffffffffffffff16600073ffffffffffffffffffffffffffffffffffffffff168273ffffffffffffffffffffffffffffffffffffffff167f4a39dc06d4c0dbc64b70af90fd698a233a518aa5d07e595d983b8c0526c8f7fb8787604051610ee2929190612e83565b60405180910390a4610ef981600087878787611d8c565b5050505050565b8151835114610f44576040517f08c379a0000000000000000000000000000000000000000000000000000000008152600401610f3b90613052565b60405180910390fd5b600073ffffffffffffffffffffffffffffffffffffffff168473ffffffffffffffffffffffffffffffffffffffff161415610fb4576040517f08c379a0000000000000000000000000000000000000000000000000000000008152600401610fab90612fb2565b60405180910390fd5b6000610fbe610bd7565b9050610fce818787878787611d84565b60005b84518110156111cb576000858281518110611015577f4e487b7100000000000000000000000000000000000000000000000000000000600052603260045260246000fd5b60200260200101519050600085838151811061105a577f4e487b7100000000000000000000000000000000000000000000000000000000600052603260045260246000fd5b60200260200101519050600080600084815260200190815260200160002060008b73ffffffffffffffffffffffffffffffffffffffff1673ffffffffffffffffffffffffffffffffffffffff168152602001908152602001600020549050818110156110fb576040517f08c379a00000000000000000000000000000000000000000000000000000000081526004016110f290612ff2565b60405180910390fd5b81810360008085815260200190815260200160002060008c73ffffffffffffffffffffffffffffffffffffffff1673ffffffffffffffffffffffffffffffffffffffff168152602001908152602001600020819055508160008085815260200190815260200160002060008b73ffffffffffffffffffffffffffffffffffffffff1673ffffffffffffffffffffffffffffffffffffffff16815260200190815260200160002060008282546111b09190613251565b92505081905550505050806111c49061344e565b9050610fd1565b508473ffffffffffffffffffffffffffffffffffffffff168673ffffffffffffffffffffffffffffffffffffffff168273ffffffffffffffffffffffffffffffffffffffff167f4a39dc06d4c0dbc64b70af90fd698a233a518aa5d07e595d983b8c0526c8f7fb8787604051611242929190612e83565b60405180910390a4611258818787878787611d8c565b505050505050565b61126a8282610953565b61133d5760016003600084815260200190815260200160002060000160008373ffffffffffffffffffffffffffffffffffffffff1673ffffffffffffffffffffffffffffffffffffffff16815260200190815260200160002060006101000a81548160ff0219169083151502179055506112e2610bd7565b73ffffffffffffffffffffffffffffffffffffffff168173ffffffffffffffffffffffffffffffffffffffff16837f2f8788117e7eff1d82e926ec794901d17c78024a50270940304540a733656f0d60405160405180910390a45b5050565b61134b8282610953565b1561141f5760006003600084815260200190815260200160002060000160008373ffffffffffffffffffffffffffffffffffffffff1673ffffffffffffffffffffffffffffffffffffffff16815260200190815260200160002060006101000a81548160ff0219169083151502179055506113c4610bd7565b73ffffffffffffffffffffffffffffffffffffffff168173ffffffffffffffffffffffffffffffffffffffff16837ff6391f5c32d9c69d2a47ea670b442974b53935d1edc7fd64eb21e047a839171b60405160405180910390a45b5050565b600073ffffffffffffffffffffffffffffffffffffffff168473ffffffffffffffffffffffffffffffffffffffff161415611493576040517f08c379a000000000000000000000000000000000000000000000000000000000815260040161148a90613072565b60405180910390fd5b600061149d610bd7565b90506114be816000876114af88611f73565b6114b888611f73565b87611d84565b8260008086815260200190815260200160002060008773ffffffffffffffffffffffffffffffffffffffff1673ffffffffffffffffffffffffffffffffffffffff168152602001908152602001600020600082825461151d9190613251565b925050819055508473ffffffffffffffffffffffffffffffffffffffff16600073ffffffffffffffffffffffffffffffffffffffff168273ffffffffffffffffffffffffffffffffffffffff167fc3d58168c5ae7397731d063d5bbf3d657854427343f4c083240f7aacaa2d0f62878760405161159b9291906130cd565b60405180910390a46115b281600087878787612039565b5050505050565b8173ffffffffffffffffffffffffffffffffffffffff168373ffffffffffffffffffffffffffffffffffffffff161415611628576040517f08c379a000000000000000000000000000000000000000000000000000000000815260040161161f90613012565b60405180910390fd5b80600160008573ffffffffffffffffffffffffffffffffffffffff1673ffffffffffffffffffffffffffffffffffffffff16815260200190815260200160002060008473ffffffffffffffffffffffffffffffffffffffff1673ffffffffffffffffffffffffffffffffffffffff16815260200190815260200160002060006101000a81548160ff0219169083151502179055508173ffffffffffffffffffffffffffffffffffffffff168373ffffffffffffffffffffffffffffffffffffffff167f17307eab39ab6107e8899845ad3d59bd9653f200f220920489ca2b5937696c31836040516117199190612eba565b60405180910390a3505050565b600073ffffffffffffffffffffffffffffffffffffffff168473ffffffffffffffffffffffffffffffffffffffff161415611796576040517f08c379a000000000000000000000000000000000000000000000000000000000815260040161178d90612fb2565b60405180910390fd5b60006117a0610bd7565b90506117c08187876117b188611f73565b6117ba88611f73565b87611d84565b600080600086815260200190815260200160002060008873ffffffffffffffffffffffffffffffffffffffff1673ffffffffffffffffffffffffffffffffffffffff16815260200190815260200160002054905083811015611857576040517f08c379a000000000000000000000000000000000000000000000000000000000815260040161184e90612ff2565b60405180910390fd5b83810360008087815260200190815260200160002060008973ffffffffffffffffffffffffffffffffffffffff1673ffffffffffffffffffffffffffffffffffffffff168152602001908152602001600020819055508360008087815260200190815260200160002060008873ffffffffffffffffffffffffffffffffffffffff1673ffffffffffffffffffffffffffffffffffffffff168152602001908152602001600020600082825461190c9190613251565b925050819055508573ffffffffffffffffffffffffffffffffffffffff168773ffffffffffffffffffffffffffffffffffffffff168373ffffffffffffffffffffffffffffffffffffffff167fc3d58168c5ae7397731d063d5bbf3d657854427343f4c083240f7aacaa2d0f6288886040516119899291906130cd565b60405180910390a461199f828888888888612039565b50505050505050565b60007fd9b67a26000000000000000000000000000000000000000000000000000000007bffffffffffffffffffffffffffffffffffffffffffffffffffffffff1916827bffffffffffffffffffffffffffffffffffffffffffffffffffffffff19161480611a7357507f0e89341c000000000000000000000000000000000000000000000000000000007bffffffffffffffffffffffffffffffffffffffffffffffffffffffff1916827bffffffffffffffffffffffffffffffffffffffffffffffffffffffff1916145b80611a835750611a8282612220565b5b9050919050565b606060006002836002611a9d91906132a7565b611aa79190613251565b67ffffffffffffffff811115611ae6577f4e487b7100000000000000000000000000000000000000000000000000000000600052604160045260246000fd5b6040519080825280601f01601f191660200182016040528015611b185781602001600182028036833780820191505090505b5090507f300000000000000000000000000000000000000000000000000000000000000081600081518110611b76577f4e487b7100000000000000000000000000000000000000000000000000000000600052603260045260246000fd5b60200101907effffffffffffffffffffffffffffffffffffffffffffffffffffffffffffff1916908160001a9053507f780000000000000000000000000000000000000000000000000000000000000081600181518110611c00577f4e487b7100000000000000000000000000000000000000000000000000000000600052603260045260246000fd5b60200101907effffffffffffffffffffffffffffffffffffffffffffffffffffffffffffff1916908160001a90535060006001846002611c4091906132a7565b611c4a9190613251565b90505b6001811115611d36577f3031323334353637383961626364656600000000000000000000000000000000600f861660108110611cb2577f4e487b7100000000000000000000000000000000000000000000000000000000600052603260045260246000fd5b1a60f81b828281518110611cef577f4e487b7100000000000000000000000000000000000000000000000000000000600052603260045260246000fd5b60200101907effffffffffffffffffffffffffffffffffffffffffffffffffffffffffffff1916908160001a905350600485901c945080611d2f906133c1565b9050611c4d565b5060008414611d7a576040517f08c379a0000000000000000000000000000000000000000000000000000000008152600401611d7190612f32565b60405180910390fd5b8091505092915050565b505050505050565b611dab8473ffffffffffffffffffffffffffffffffffffffff1661228a565b15611f6b578373ffffffffffffffffffffffffffffffffffffffff1663bc197c8187878686866040518663ffffffff1660e01b8152600401611df1959493929190612d9f565b602060405180830381600087803b158015611e0b57600080fd5b505af1925050508015611e3c57506040513d601f19601f82011682018060405250810190611e399190612961565b60015b611ee257611e48613524565b806308c379a01415611ea55750611e5d613993565b80611e685750611ea7565b806040517f08c379a0000000000000000000000000000000000000000000000000000000008152600401611e9c9190612ef0565b60405180910390fd5b505b6040517f08c379a0000000000000000000000000000000000000000000000000000000008152600401611ed990612f12565b60405180910390fd5b63bc197c8160e01b7bffffffffffffffffffffffffffffffffffffffffffffffffffffffff1916817bffffffffffffffffffffffffffffffffffffffffffffffffffffffff191614611f69576040517f08c379a0000000000000000000000000000000000000000000000000000000008152600401611f6090612f52565b60405180910390fd5b505b505050505050565b60606000600167ffffffffffffffff811115611fb8577f4e487b7100000000000000000000000000000000000000000000000000000000600052604160045260246000fd5b604051908082528060200260200182016040528015611fe65781602001602082028036833780820191505090505b5090508281600081518110612024577f4e487b7100000000000000000000000000000000000000000000000000000000600052603260045260246000fd5b60200260200101818152505080915050919050565b6120588473ffffffffffffffffffffffffffffffffffffffff1661228a565b15612218578373ffffffffffffffffffffffffffffffffffffffff1663f23a6e6187878686866040518663ffffffff1660e01b815260040161209e959493929190612e07565b602060405180830381600087803b1580156120b857600080fd5b505af19250505080156120e957506040513d601f19601f820116820180604052508101906120e69190612961565b60015b61218f576120f5613524565b806308c379a01415612152575061210a613993565b806121155750612154565b806040517f08c379a00000000000000000000000000000000000000000000000000000000081526004016121499190612ef0565b60405180910390fd5b505b6040517f08c379a000000000000000000000000000000000000000000000000000000000815260040161218690612f12565b60405180910390fd5b63f23a6e6160e01b7bffffffffffffffffffffffffffffffffffffffffffffffffffffffff1916817bffffffffffffffffffffffffffffffffffffffffffffffffffffffff191614612216576040517f08c379a000000000000000000000000000000000000000000000000000000000815260040161220d90612f52565b60405180910390fd5b505b505050505050565b60007f01ffc9a7000000000000000000000000000000000000000000000000000000007bffffffffffffffffffffffffffffffffffffffffffffffffffffffff1916827bffffffffffffffffffffffffffffffffffffffffffffffffffffffff1916149050919050565b600080823b905060008111915050919050565b8280546122a9906133eb565b90600052602060002090601f0160209004810192826122cb5760008555612312565b82601f106122e457805160ff1916838001178555612312565b82800160010185558215612312579182015b828111156123115782518255916020019190600101906122f6565b5b50905061231f9190612323565b5090565b5b8082111561233c576000816000905550600101612324565b5090565b600061235361234e8461311b565b6130f6565b9050808382526020820190508285602086028201111561237257600080fd5b60005b858110156123a257816123888882612494565b845260208401935060208301925050600181019050612375565b5050509392505050565b60006123bf6123ba84613147565b6130f6565b905080838252602082019050828560208602820111156123de57600080fd5b60005b8581101561240e57816123f488826125a5565b8452602084019350602083019250506001810190506123e1565b5050509392505050565b600061242b61242684613173565b6130f6565b90508281526020810184848401111561244357600080fd5b61244e84828561337f565b509392505050565b6000612469612464846131a4565b6130f6565b90508281526020810184848401111561248157600080fd5b61248c84828561337f565b509392505050565b6000813590506124a381613a29565b92915050565b600082601f8301126124ba57600080fd5b81356124ca848260208601612340565b91505092915050565b600082601f8301126124e457600080fd5b81356124f48482602086016123ac565b91505092915050565b60008135905061250c81613a40565b92915050565b60008135905061252181613a57565b92915050565b60008135905061253681613a6e565b92915050565b60008151905061254b81613a6e565b92915050565b600082601f83011261256257600080fd5b8135612572848260208601612418565b91505092915050565b600082601f83011261258c57600080fd5b813561259c848260208601612456565b91505092915050565b6000813590506125b481613a85565b92915050565b600080604083850312156125cd57600080fd5b60006125db85828601612494565b92505060206125ec85828601612494565b9150509250929050565b600080600080600060a0868803121561260e57600080fd5b600061261c88828901612494565b955050602061262d88828901612494565b945050604086013567ffffffffffffffff81111561264a57600080fd5b612656888289016124d3565b935050606086013567ffffffffffffffff81111561267357600080fd5b61267f888289016124d3565b925050608086013567ffffffffffffffff81111561269c57600080fd5b6126a888828901612551565b9150509295509295909350565b600080600080600060a086880312156126cd57600080fd5b60006126db88828901612494565b95505060206126ec88828901612494565b94505060406126fd888289016125a5565b935050606061270e888289016125a5565b925050608086013567ffffffffffffffff81111561272b57600080fd5b61273788828901612551565b9150509295509295909350565b6000806000806080858703121561275a57600080fd5b600061276887828801612494565b945050602085013567ffffffffffffffff81111561278557600080fd5b612791878288016124d3565b935050604085013567ffffffffffffffff8111156127ae57600080fd5b6127ba878288016124d3565b925050606085013567ffffffffffffffff8111156127d757600080fd5b6127e387828801612551565b91505092959194509250565b6000806040838503121561280257600080fd5b600061281085828601612494565b9250506020612821858286016124fd565b9150509250929050565b6000806040838503121561283e57600080fd5b600061284c85828601612494565b925050602061285d858286016125a5565b9150509250929050565b6000806040838503121561287a57600080fd5b600083013567ffffffffffffffff81111561289457600080fd5b6128a0858286016124a9565b925050602083013567ffffffffffffffff8111156128bd57600080fd5b6128c9858286016124d3565b9150509250929050565b6000602082840312156128e557600080fd5b60006128f384828501612512565b91505092915050565b6000806040838503121561290f57600080fd5b600061291d85828601612512565b925050602061292e85828601612494565b9150509250929050565b60006020828403121561294a57600080fd5b600061295884828501612527565b91505092915050565b60006020828403121561297357600080fd5b60006129818482850161253c565b91505092915050565b60006020828403121561299c57600080fd5b600082013567ffffffffffffffff8111156129b657600080fd5b6129c28482850161257b565b91505092915050565b6000602082840312156129dd57600080fd5b60006129eb848285016125a5565b91505092915050565b6000612a008383612d47565b60208301905092915050565b612a1581613301565b82525050565b6000612a26826131e5565b612a308185613213565b9350612a3b836131d5565b8060005b83811015612a6c578151612a5388826129f4565b9750612a5e83613206565b925050600181019050612a3f565b5085935050505092915050565b612a8281613313565b82525050565b612a918161331f565b82525050565b6000612aa2826131f0565b612aac8185613224565b9350612abc81856020860161338e565b612ac581613546565b840191505092915050565b6000612adb826131fb565b612ae58185613235565b9350612af581856020860161338e565b612afe81613546565b840191505092915050565b6000612b14826131fb565b612b1e8185613246565b9350612b2e81856020860161338e565b80840191505092915050565b6000612b47603483613235565b9150612b5282613564565b604082019050919050565b6000612b6a602083613235565b9150612b75826135b3565b602082019050919050565b6000612b8d602883613235565b9150612b98826135dc565b604082019050919050565b6000612bb0602b83613235565b9150612bbb8261362b565b604082019050919050565b6000612bd3602983613235565b9150612bde8261367a565b604082019050919050565b6000612bf6602583613235565b9150612c01826136c9565b604082019050919050565b6000612c19603283613235565b9150612c2482613718565b604082019050919050565b6000612c3c602a83613235565b9150612c4782613767565b604082019050919050565b6000612c5f601783613246565b9150612c6a826137b6565b601782019050919050565b6000612c82602983613235565b9150612c8d826137df565b604082019050919050565b6000612ca5602983613235565b9150612cb08261382e565b604082019050919050565b6000612cc8602883613235565b9150612cd38261387d565b604082019050919050565b6000612ceb602183613235565b9150612cf6826138cc565b604082019050919050565b6000612d0e601183613246565b9150612d198261391b565b601182019050919050565b6000612d31602f83613235565b9150612d3c82613944565b604082019050919050565b612d5081613375565b82525050565b612d5f81613375565b82525050565b6000612d7082612c52565b9150612d7c8285612b09565b9150612d8782612d01565b9150612d938284612b09565b91508190509392505050565b600060a082019050612db46000830188612a0c565b612dc16020830187612a0c565b8181036040830152612dd38186612a1b565b90508181036060830152612de78185612a1b565b90508181036080830152612dfb8184612a97565b90509695505050505050565b600060a082019050612e1c6000830188612a0c565b612e296020830187612a0c565b612e366040830186612d56565b612e436060830185612d56565b8181036080830152612e558184612a97565b90509695505050505050565b60006020820190508181036000830152612e7b8184612a1b565b905092915050565b60006040820190508181036000830152612e9d8185612a1b565b90508181036020830152612eb18184612a1b565b90509392505050565b6000602082019050612ecf6000830184612a79565b92915050565b6000602082019050612eea6000830184612a88565b92915050565b60006020820190508181036000830152612f0a8184612ad0565b905092915050565b60006020820190508181036000830152612f2b81612b3a565b9050919050565b60006020820190508181036000830152612f4b81612b5d565b9050919050565b60006020820190508181036000830152612f6b81612b80565b9050919050565b60006020820190508181036000830152612f8b81612ba3565b9050919050565b60006020820190508181036000830152612fab81612bc6565b9050919050565b60006020820190508181036000830152612fcb81612be9565b9050919050565b60006020820190508181036000830152612feb81612c0c565b9050919050565b6000602082019050818103600083015261300b81612c2f565b9050919050565b6000602082019050818103600083015261302b81612c75565b9050919050565b6000602082019050818103600083015261304b81612c98565b9050919050565b6000602082019050818103600083015261306b81612cbb565b9050919050565b6000602082019050818103600083015261308b81612cde565b9050919050565b600060208201905081810360008301526130ab81612d24565b9050919050565b60006020820190506130c76000830184612d56565b92915050565b60006040820190506130e26000830185612d56565b6130ef6020830184612d56565b9392505050565b6000613100613111565b905061310c828261341d565b919050565b6000604051905090565b600067ffffffffffffffff821115613136576131356134f5565b5b602082029050602081019050919050565b600067ffffffffffffffff821115613162576131616134f5565b5b602082029050602081019050919050565b600067ffffffffffffffff82111561318e5761318d6134f5565b5b61319782613546565b9050602081019050919050565b600067ffffffffffffffff8211156131bf576131be6134f5565b5b6131c882613546565b9050602081019050919050565b6000819050602082019050919050565b600081519050919050565b600081519050919050565b600081519050919050565b6000602082019050919050565b600082825260208201905092915050565b600082825260208201905092915050565b600082825260208201905092915050565b600081905092915050565b600061325c82613375565b915061326783613375565b9250827fffffffffffffffffffffffffffffffffffffffffffffffffffffffffffffffff0382111561329c5761329b613497565b5b828201905092915050565b60006132b282613375565b91506132bd83613375565b9250817fffffffffffffffffffffffffffffffffffffffffffffffffffffffffffffffff04831182151516156132f6576132f5613497565b5b828202905092915050565b600061330c82613355565b9050919050565b60008115159050919050565b6000819050919050565b60007fffffffff0000000000000000000000000000000000000000000000000000000082169050919050565b600073ffffffffffffffffffffffffffffffffffffffff82169050919050565b6000819050919050565b82818337600083830152505050565b60005b838110156133ac578082015181840152602081019050613391565b838111156133bb576000848401525b50505050565b60006133cc82613375565b915060008214156133e0576133df613497565b5b600182039050919050565b6000600282049050600182168061340357607f821691505b60208210811415613417576134166134c6565b5b50919050565b61342682613546565b810181811067ffffffffffffffff82111715613445576134446134f5565b5b80604052505050565b600061345982613375565b91507fffffffffffffffffffffffffffffffffffffffffffffffffffffffffffffffff82141561348c5761348b613497565b5b600182019050919050565b7f4e487b7100000000000000000000000000000000000000000000000000000000600052601160045260246000fd5b7f4e487b7100000000000000000000000000000000000000000000000000000000600052602260045260246000fd5b7f4e487b7100000000000000000000000000000000000000000000000000000000600052604160045260246000fd5b600060033d11156135435760046000803e613540600051613557565b90505b90565b6000601f19601f8301169050919050565b60008160e01c9050919050565b7f455243313135353a207472616e7366657220746f206e6f6e204552433131353560008201527f526563656976657220696d706c656d656e746572000000000000000000000000602082015250565b7f537472696e67733a20686578206c656e67746820696e73756666696369656e74600082015250565b7f455243313135353a204552433131353552656365697665722072656a6563746560008201527f6420746f6b656e73000000000000000000000000000000000000000000000000602082015250565b7f455243313135353a2062616c616e636520717565727920666f7220746865207a60008201527f65726f2061646472657373000000000000000000000000000000000000000000602082015250565b7f455243313135353a2063616c6c6572206973206e6f74206f776e6572206e6f7260008201527f20617070726f7665640000000000000000000000000000000000000000000000602082015250565b7f455243313135353a207472616e7366657220746f20746865207a65726f20616460008201527f6472657373000000000000000000000000000000000000000000000000000000602082015250565b7f455243313135353a207472616e736665722063616c6c6572206973206e6f742060008201527f6f776e6572206e6f7220617070726f7665640000000000000000000000000000602082015250565b7f455243313135353a20696e73756666696369656e742062616c616e636520666f60008201527f72207472616e7366657200000000000000000000000000000000000000000000602082015250565b7f416363657373436f6e74726f6c3a206163636f756e7420000000000000000000600082015250565b7f455243313135353a2073657474696e6720617070726f76616c2073746174757360008201527f20666f722073656c660000000000000000000000000000000000000000000000602082015250565b7f455243313135353a206163636f756e747320616e6420696473206c656e67746860008201527f206d69736d617463680000000000000000000000000000000000000000000000602082015250565b7f455243313135353a2069647320616e6420616d6f756e7473206c656e6774682060008201527f6d69736d61746368000000000000000000000000000000000000000000000000602082015250565b7f455243313135353a206d696e7420746f20746865207a65726f2061646472657360008201527f7300000000000000000000000000000000000000000000000000000000000000602082015250565b7f206973206d697373696e6720726f6c6520000000000000000000000000000000600082015250565b7f416363657373436f6e74726f6c3a2063616e206f6e6c792072656e6f756e636560008201527f20726f6c657320666f722073656c660000000000000000000000000000000000602082015250565b600060443d10156139a357613a26565b6139ab613111565b60043d036004823e80513d602482011167ffffffffffffffff821117156139d3575050613a26565b808201805167ffffffffffffffff8111156139f15750505050613a26565b80602083010160043d038501811115613a0e575050505050613a26565b613a1d8260200185018661341d565b82955050505050505b90565b613a3281613301565b8114613a3d57600080fd5b50565b613a4981613313565b8114613a5457600080fd5b50565b613a608161331f565b8114613a6b57600080fd5b50565b613a7781613329565b8114613a8257600080fd5b50565b613a8e81613375565b8114613a9957600080fd5b5056fea2646970667358221220be4b7256665ca0a24b67baca2143e0a4e0114c9a52264003f885dce7d57bb90d64736f6c63430008040033",
  "linkReferences": {},
  "deployedLinkReferences": {}
}